{
  "_format": "hh-sol-artifact-1",
  "contractName": "Lottery",
  "sourceName": "contracts/Lottery.sol",
  "abi": [
    {
      "inputs": [],
      "stateMutability": "nonpayable",
      "type": "constructor"
    },
    {
      "anonymous": false,
      "inputs": [
        {
          "indexed": false,
          "internalType": "string",
          "name": "status",
          "type": "string"
        }
      ],
      "name": "LotteryStatus",
      "type": "event"
    },
    {
      "anonymous": false,
      "inputs": [
        {
          "indexed": false,
          "internalType": "uint256",
          "name": "ticketNumber",
          "type": "uint256"
        },
        {
          "indexed": false,
          "internalType": "address",
          "name": "winner",
          "type": "address"
        }
      ],
      "name": "Winner",
      "type": "event"
    },
    {
      "inputs": [
        {
          "internalType": "uint256",
          "name": "maxPlayers",
          "type": "uint256"
        }
      ],
      "name": "createLottery",
      "outputs": [],
      "stateMutability": "nonpayable",
      "type": "function"
    },
    {
      "inputs": [],
      "name": "creator",
      "outputs": [
        {
          "internalType": "address payable",
          "name": "",
          "type": "address"
        }
      ],
      "stateMutability": "view",
      "type": "function"
    },
    {
      "inputs": [
        {
          "internalType": "uint256",
          "name": "ticketNumber",
          "type": "uint256"
        }
      ],
      "name": "enter",
      "outputs": [],
      "stateMutability": "payable",
      "type": "function"
    },
    {
      "inputs": [],
      "name": "getAllLotteryTickets",
      "outputs": [
        {
          "internalType": "uint256[]",
          "name": "",
          "type": "uint256[]"
        }
      ],
      "stateMutability": "view",
      "type": "function"
    },
    {
      "inputs": [],
      "name": "getPlayers",
      "outputs": [
        {
          "internalType": "address payable[]",
          "name": "",
          "type": "address[]"
        }
      ],
      "stateMutability": "view",
      "type": "function"
    },
    {
      "inputs": [],
      "name": "isOpen",
      "outputs": [
        {
          "internalType": "bool",
          "name": "",
          "type": "bool"
        }
      ],
      "stateMutability": "view",
      "type": "function"
    },
    {
      "inputs": [
        {
          "internalType": "uint256",
          "name": "",
          "type": "uint256"
        }
      ],
      "name": "lotteryEvent",
      "outputs": [
        {
          "internalType": "address payable",
          "name": "manager",
          "type": "address"
        }
      ],
      "stateMutability": "view",
      "type": "function"
    },
    {
      "inputs": [],
      "name": "numberOfGames",
      "outputs": [
        {
          "internalType": "uint256",
          "name": "",
          "type": "uint256"
        }
      ],
      "stateMutability": "view",
      "type": "function"
    },
    {
      "inputs": [],
      "name": "panicButton",
      "outputs": [],
      "stateMutability": "nonpayable",
      "type": "function"
    },
    {
      "inputs": [],
      "name": "pickWinner",
      "outputs": [],
      "stateMutability": "nonpayable",
      "type": "function"
    },
    {
      "inputs": [
        {
          "internalType": "uint256",
          "name": "number",
          "type": "uint256"
        }
      ],
      "name": "randomRange",
      "outputs": [
        {
          "internalType": "uint256",
          "name": "",
          "type": "uint256"
        }
      ],
      "stateMutability": "view",
      "type": "function"
    },
    {
      "inputs": [],
      "name": "seeCurrentManager",
      "outputs": [
        {
          "internalType": "address",
          "name": "",
          "type": "address"
        }
      ],
      "stateMutability": "view",
      "type": "function"
    },
    {
      "inputs": [],
      "name": "seeUsedTickets",
      "outputs": [
        {
          "internalType": "uint256[]",
          "name": "",
          "type": "uint256[]"
        }
      ],
      "stateMutability": "view",
      "type": "function"
    },
    {
      "inputs": [
        {
          "internalType": "address",
          "name": "yourAddress",
          "type": "address"
        }
      ],
      "name": "seeYourTicket",
      "outputs": [
        {
          "internalType": "uint256",
          "name": "",
          "type": "uint256"
        }
      ],
      "stateMutability": "view",
      "type": "function"
    },
    {
      "inputs": [],
      "name": "totalAwards",
      "outputs": [
        {
          "internalType": "uint256",
          "name": "",
          "type": "uint256"
        }
      ],
      "stateMutability": "view",
      "type": "function"
    }
  ],
  "bytecode": "0x608060405234801561001057600080fd5b50336000806101000a81548173ffffffffffffffffffffffffffffffffffffffff021916908373ffffffffffffffffffffffffffffffffffffffff16021790555060008060146101000a81548160ff02191690831515021790555060006001819055506000600281905550611bb58061008a6000396000f3fe6080604052600436106100e85760003560e01c80638dd8c56d1161008a578063dc54f31211610059578063dc54f312146102c3578063e84c7b06146102ee578063f692807014610319578063f6e66c1714610344576100e8565b80638dd8c56d1461022a578063a59f3e0c14610253578063b2d00f4a1461026f578063bf7d6f5f146102ac576100e8565b806347535d7b116100c657806347535d7b146101805780635d495aea146101ab57806376ba4d3d146101c25780638b5b9ccc146101ff576100e8565b806302d05d3f146100ed578063378a711914610118578063381211a014610155575b600080fd5b3480156100f957600080fd5b5061010261036f565b60405161010f91906116c9565b60405180910390f35b34801561012457600080fd5b5061013f600480360381019061013a9190611347565b610393565b60405161014c9190611803565b60405180910390f35b34801561016157600080fd5b5061016a6103df565b60405161017791906116ae565b60405180910390f35b34801561018c57600080fd5b50610195610472565b6040516101a29190611728565b60405180910390f35b3480156101b757600080fd5b506101c0610485565b005b3480156101ce57600080fd5b506101e960048036038101906101e4919061131e565b610954565b6040516101f69190611803565b60405180910390f35b34801561020b57600080fd5b50610214610a06565b60405161022191906116e4565b60405180910390f35b34801561023657600080fd5b50610251600480360381019061024c9190611347565b610afe565b005b61026d60048036038101906102689190611347565b610c71565b005b34801561027b57600080fd5b5061029660048036038101906102919190611347565b610f07565b6040516102a391906116c9565b60405180910390f35b3480156102b857600080fd5b506102c1610f55565b005b3480156102cf57600080fd5b506102d8611164565b6040516102e59190611706565b60405180910390f35b3480156102fa57600080fd5b50610303611226565b6040516103109190611706565b60405180910390f35b34801561032557600080fd5b5061032e6112e8565b60405161033b9190611803565b60405180910390f35b34801561035057600080fd5b506103596112ee565b6040516103669190611803565b60405180910390f35b60008054906101000a900473ffffffffffffffffffffffffffffffffffffffff1681565b600060018242446040516020016103ab929190611682565b6040516020818303038152906040528051906020012060001c6103ce9190611ac2565b6103d891906118ca565b9050919050565b60008060149054906101000a900460ff166103f957600080fd5b6000600360015481548110610437577f4e487b7100000000000000000000000000000000000000000000000000000000600052603260045260246000fd5b906000526020600020906006020190508060000160009054906101000a900473ffffffffffffffffffffffffffffffffffffffff1691505090565b600060149054906101000a900460ff1681565b60006003600154815481106104c3577f4e487b7100000000000000000000000000000000000000000000000000000000600052603260045260246000fd5b906000526020600020906006020190508060000160009054906101000a900473ffffffffffffffffffffffffffffffffffffffff1673ffffffffffffffffffffffffffffffffffffffff163373ffffffffffffffffffffffffffffffffffffffff161461052f57600080fd5b600060149054906101000a900460ff1661054857600080fd5b6000600360015481548110610586577f4e487b7100000000000000000000000000000000000000000000000000000000600052603260045260246000fd5b906000526020600020906006020190506000816001018054905011156108e957600060016105ba8360020180549050610393565b6105c491906119ab565b9050607d6064476105d59190611951565b6105df9190611920565b6002546105ec91906118ca565b60028190555081600101818154811061062e577f4e487b7100000000000000000000000000000000000000000000000000000000600052603260045260246000fd5b9060005260206000200160009054906101000a900473ffffffffffffffffffffffffffffffffffffffff1673ffffffffffffffffffffffffffffffffffffffff166108fc607d6064476106819190611951565b61068b9190611920565b9081150290604051600060405180830381858888f193505050501580156106b6573d6000803e3d6000fd5b5060008054906101000a900473ffffffffffffffffffffffffffffffffffffffff1673ffffffffffffffffffffffffffffffffffffffff166108fc60646019476107009190611951565b61070a9190611920565b9081150290604051600060405180830381858888f19350505050158015610735573d6000803e3d6000fd5b508160000160009054906101000a900473ffffffffffffffffffffffffffffffffffffffff1673ffffffffffffffffffffffffffffffffffffffff166108fc479081150290604051600060405180830381858888f193505050501580156107a0573d6000803e3d6000fd5b507f6b5936f5be80114e7a91daf84ba4886ece975aaffac48c9609cfa022d74a8a7d826005016000846001018481548110610804577f4e487b7100000000000000000000000000000000000000000000000000000000600052603260045260246000fd5b9060005260206000200160009054906101000a900473ffffffffffffffffffffffffffffffffffffffff1673ffffffffffffffffffffffffffffffffffffffff1673ffffffffffffffffffffffffffffffffffffffff168152602001908152602001600020548360010183815481106108a6577f4e487b7100000000000000000000000000000000000000000000000000000000600052603260045260246000fd5b9060005260206000200160009054906101000a900473ffffffffffffffffffffffffffffffffffffffff166040516108df92919061181e565b60405180910390a1505b60008060146101000a81548160ff0219169083151502179055506001600081548092919061091690611a6f565b91905055507f46e41d5838bbb8ea44e6dc1d09a12d2d748558311a3049f180a8db1afa9a15cd60405161094890611783565b60405180910390a15050565b60008060149054906101000a900460ff1661096e57600080fd5b60006003600154815481106109ac577f4e487b7100000000000000000000000000000000000000000000000000000000600052603260045260246000fd5b906000526020600020906006020190508060050160008473ffffffffffffffffffffffffffffffffffffffff1673ffffffffffffffffffffffffffffffffffffffff16815260200190815260200160002054915050919050565b6060600060149054906101000a900460ff16610a2157600080fd5b6000600360015481548110610a5f577f4e487b7100000000000000000000000000000000000000000000000000000000600052603260045260246000fd5b9060005260206000209060060201905080600101805480602002602001604051908101604052809291908181526020018280548015610af357602002820191906000526020600020905b8160009054906101000a900473ffffffffffffffffffffffffffffffffffffffff1673ffffffffffffffffffffffffffffffffffffffff1681526020019060010190808311610aa9575b505050505091505090565b600060149054906101000a900460ff1615610b1857600080fd5b60006003805490509050600360018160018154018082558091505003906000526020600020905050600060038281548110610b7c577f4e487b7100000000000000000000000000000000000000000000000000000000600052603260045260246000fd5b90600052602060002090600602019050338160000160006101000a81548173ffffffffffffffffffffffffffffffffffffffff021916908373ffffffffffffffffffffffffffffffffffffffff1602179055506000600190505b838111610c1b57816003018190806001815401808255809150506001900390600052602060002001600090919091909150558080610c1390611a6f565b915050610bd6565b6001600060146101000a81548160ff0219169083151502179055507f46e41d5838bbb8ea44e6dc1d09a12d2d748558311a3049f180a8db1afa9a15cd604051610c63906117c3565b60405180910390a150505050565b6000600360015481548110610caf577f4e487b7100000000000000000000000000000000000000000000000000000000600052603260045260246000fd5b90600052602060002090600602019050662386f26fc100003414610d08576040517f08c379a0000000000000000000000000000000000000000000000000000000008152600401610cff906117e3565b60405180910390fd5b8060030180549050816002018054905010610d58576040517f08c379a0000000000000000000000000000000000000000000000000000000008152600401610d4f906117a3565b60405180910390fd5b80600401600083815260200190815260200160002060009054906101000a900460ff1615610dbb576040517f08c379a0000000000000000000000000000000000000000000000000000000008152600401610db290611743565b60405180910390fd5b6000821415610dff576040517f08c379a0000000000000000000000000000000000000000000000000000000008152600401610df690611763565b60405180910390fd5b80600101339080600181540180825580915050600190039060005260206000200160009091909190916101000a81548173ffffffffffffffffffffffffffffffffffffffff021916908373ffffffffffffffffffffffffffffffffffffffff16021790555080600201829080600181540180825580915050600190039060005260206000200160009091909190915055600181600401600084815260200190815260200160002060006101000a81548160ff021916908315150217905550818160050160003373ffffffffffffffffffffffffffffffffffffffff1673ffffffffffffffffffffffffffffffffffffffff168152602001908152602001600020819055505050565b60038181548110610f1757600080fd5b90600052602060002090600602016000915090508060000160009054906101000a900473ffffffffffffffffffffffffffffffffffffffff16905081565b60008054906101000a900473ffffffffffffffffffffffffffffffffffffffff1673ffffffffffffffffffffffffffffffffffffffff163373ffffffffffffffffffffffffffffffffffffffff1614610fad57600080fd5b6000600360015481548110610feb577f4e487b7100000000000000000000000000000000000000000000000000000000600052603260045260246000fd5b906000526020600020906006020190506000816001018054905011156110fa576000808260010180549050476110219190611920565b9050600091505b82600101805490508210156110f757826001018281548110611073577f4e487b7100000000000000000000000000000000000000000000000000000000600052603260045260246000fd5b9060005260206000200160009054906101000a900473ffffffffffffffffffffffffffffffffffffffff1673ffffffffffffffffffffffffffffffffffffffff166108fc829081150290604051600060405180830381858888f193505050501580156110e3573d6000803e3d6000fd5b5081806110ef90611a6f565b925050611028565b50505b60008060146101000a81548160ff0219169083151502179055506001600081548092919061112790611a6f565b91905055507f46e41d5838bbb8ea44e6dc1d09a12d2d748558311a3049f180a8db1afa9a15cd60405161115990611783565b60405180910390a150565b6060600060149054906101000a900460ff1661117f57600080fd5b60006003600154815481106111bd577f4e487b7100000000000000000000000000000000000000000000000000000000600052603260045260246000fd5b906000526020600020906006020190508060030180548060200260200160405190810160405280929190818152602001828054801561121b57602002820191906000526020600020905b815481526020019060010190808311611207575b505050505091505090565b6060600060149054906101000a900460ff1661124157600080fd5b600060036001548154811061127f577f4e487b7100000000000000000000000000000000000000000000000000000000600052603260045260246000fd5b90600052602060002090600602019050806002018054806020026020016040519081016040528092919081815260200182805480156112dd57602002820191906000526020600020905b8154815260200190600101908083116112c9575b505050505091505090565b60015481565b60025481565b60008135905061130381611b51565b92915050565b60008135905061131881611b68565b92915050565b60006020828403121561133057600080fd5b600061133e848285016112f4565b91505092915050565b60006020828403121561135957600080fd5b600061136784828501611309565b91505092915050565b600061137c83836113af565b60208301905092915050565b6000611394838361164d565b60208301905092915050565b6113a981611a39565b82525050565b6113b8816119f1565b82525050565b6113c7816119f1565b82525050565b6113d6816119df565b82525050565b60006113e782611867565b6113f18185611897565b93506113fc83611847565b8060005b8381101561142d5781516114148882611370565b975061141f8361187d565b925050600181019050611400565b5085935050505092915050565b600061144582611872565b61144f81856118a8565b935061145a83611857565b8060005b8381101561148b5781516114728882611388565b975061147d8361188a565b92505060018101905061145e565b5085935050505092915050565b6114a181611a03565b82525050565b60006114b46015836118b9565b91507f7469636b656420616c72656164792074616b656e2100000000000000000000006000830152602082019050919050565b60006114f46020836118b9565b91507f7469636b6574206d757374206265206120706f736974697665206e756d6265726000830152602082019050919050565b60006115346006836118b9565b91507f636c6f73656400000000000000000000000000000000000000000000000000006000830152602082019050919050565b60006115746014836118b9565b91507f6e6f207469636b65747320617661696c61626c650000000000000000000000006000830152602082019050919050565b60006115b46004836118b9565b91507f6f70656e000000000000000000000000000000000000000000000000000000006000830152602082019050919050565b60006115f46024836118b9565b91507f656e746572696e672076616c75652069732065786163746c7920302e3031206560008301527f74686572000000000000000000000000000000000000000000000000000000006020830152604082019050919050565b61165681611a2f565b82525050565b61166581611a2f565b82525050565b61167c61167782611a2f565b611ab8565b82525050565b600061168e828561166b565b60208201915061169e828461166b565b6020820191508190509392505050565b60006020820190506116c360008301846113cd565b92915050565b60006020820190506116de60008301846113be565b92915050565b600060208201905081810360008301526116fe81846113dc565b905092915050565b60006020820190508181036000830152611720818461143a565b905092915050565b600060208201905061173d6000830184611498565b92915050565b6000602082019050818103600083015261175c816114a7565b9050919050565b6000602082019050818103600083015261177c816114e7565b9050919050565b6000602082019050818103600083015261179c81611527565b9050919050565b600060208201905081810360008301526117bc81611567565b9050919050565b600060208201905081810360008301526117dc816115a7565b9050919050565b600060208201905081810360008301526117fc816115e7565b9050919050565b6000602082019050611818600083018461165c565b92915050565b6000604082019050611833600083018561165c565b61184060208301846113a0565b9392505050565b6000819050602082019050919050565b6000819050602082019050919050565b600081519050919050565b600081519050919050565b6000602082019050919050565b6000602082019050919050565b600082825260208201905092915050565b600082825260208201905092915050565b600082825260208201905092915050565b60006118d582611a2f565b91506118e083611a2f565b9250827fffffffffffffffffffffffffffffffffffffffffffffffffffffffffffffffff0382111561191557611914611af3565b5b828201905092915050565b600061192b82611a2f565b915061193683611a2f565b92508261194657611945611b22565b5b828204905092915050565b600061195c82611a2f565b915061196783611a2f565b9250817fffffffffffffffffffffffffffffffffffffffffffffffffffffffffffffffff04831182151516156119a05761199f611af3565b5b828202905092915050565b60006119b682611a2f565b91506119c183611a2f565b9250828210156119d4576119d3611af3565b5b828203905092915050565b60006119ea82611a0f565b9050919050565b60006119fc82611a0f565b9050919050565b60008115159050919050565b600073ffffffffffffffffffffffffffffffffffffffff82169050919050565b6000819050919050565b6000611a4482611a4b565b9050919050565b6000611a5682611a5d565b9050919050565b6000611a6882611a0f565b9050919050565b6000611a7a82611a2f565b91507fffffffffffffffffffffffffffffffffffffffffffffffffffffffffffffffff821415611aad57611aac611af3565b5b600182019050919050565b6000819050919050565b6000611acd82611a2f565b9150611ad883611a2f565b925082611ae857611ae7611b22565b5b828206905092915050565b7f4e487b7100000000000000000000000000000000000000000000000000000000600052601160045260246000fd5b7f4e487b7100000000000000000000000000000000000000000000000000000000600052601260045260246000fd5b611b5a816119df565b8114611b6557600080fd5b50565b611b7181611a2f565b8114611b7c57600080fd5b5056fea2646970667358221220c5bfab1942e773c062546e6c2f6423eebb43d1c95053f679a2de6e1d5dd21d9864736f6c63430008000033",
  "linkReferences": {},
  "deployedLinkReferences": {}
}